{
  "_format": "hh-sol-artifact-1",
  "contractName": "StakingContract",
  "sourceName": "contracts/Staking.sol",
  "abi": [
    {
      "inputs": [
        {
          "internalType": "address",
          "name": "_DEFI_TOKEN_ADDRESS",
          "type": "address"
        }
      ],
      "stateMutability": "nonpayable",
      "type": "constructor"
    },
    {
      "anonymous": false,
      "inputs": [
        {
          "indexed": true,
          "internalType": "address",
          "name": "user",
          "type": "address"
        },
        {
          "indexed": false,
          "internalType": "uint256",
          "name": "amount",
          "type": "uint256"
        }
      ],
      "name": "Staked",
      "type": "event"
    },
    {
      "anonymous": false,
      "inputs": [
        {
          "indexed": true,
          "internalType": "address",
          "name": "user",
          "type": "address"
        },
        {
          "indexed": false,
          "internalType": "uint256",
          "name": "amount",
          "type": "uint256"
        },
        {
          "indexed": false,
          "internalType": "uint256",
          "name": "rewards",
          "type": "uint256"
        }
      ],
      "name": "Withdrawn",
      "type": "event"
    },
    {
      "inputs": [],
      "name": "DEFI_TOKEN_ADDRESS",
      "outputs": [
        {
          "internalType": "address",
          "name": "",
          "type": "address"
        }
      ],
      "stateMutability": "view",
      "type": "function"
    },
    {
      "inputs": [],
      "name": "STAKE_AMOUNT_PER_REWARD",
      "outputs": [
        {
          "internalType": "uint256",
          "name": "",
          "type": "uint256"
        }
      ],
      "stateMutability": "view",
      "type": "function"
    },
    {
      "inputs": [
        {
          "internalType": "uint256",
          "name": "amount",
          "type": "uint256"
        }
      ],
      "name": "stake",
      "outputs": [],
      "stateMutability": "nonpayable",
      "type": "function"
    },
    {
      "inputs": [
        {
          "internalType": "address",
          "name": "",
          "type": "address"
        },
        {
          "internalType": "uint256",
          "name": "",
          "type": "uint256"
        }
      ],
      "name": "stakes",
      "outputs": [
        {
          "internalType": "uint256",
          "name": "amount",
          "type": "uint256"
        },
        {
          "internalType": "uint256",
          "name": "lastStakedBlock",
          "type": "uint256"
        },
        {
          "internalType": "uint256",
          "name": "totalRewards",
          "type": "uint256"
        }
      ],
      "stateMutability": "view",
      "type": "function"
    },
    {
      "inputs": [
        {
          "internalType": "address",
          "name": "user",
          "type": "address"
        }
      ],
      "name": "viewRewards",
      "outputs": [
        {
          "internalType": "uint256",
          "name": "",
          "type": "uint256"
        }
      ],
      "stateMutability": "view",
      "type": "function"
    },
    {
      "inputs": [],
      "name": "withdraw",
      "outputs": [],
      "stateMutability": "nonpayable",
      "type": "function"
    }
  ],
  "bytecode": "0x608060405234801561001057600080fd5b50604051610e8b380380610e8b833981810160405281019061003291906100dc565b80600160006101000a81548173ffffffffffffffffffffffffffffffffffffffff021916908373ffffffffffffffffffffffffffffffffffffffff16021790555050610109565b600080fd5b600073ffffffffffffffffffffffffffffffffffffffff82169050919050565b60006100a98261007e565b9050919050565b6100b98161009e565b81146100c457600080fd5b50565b6000815190506100d6816100b0565b92915050565b6000602082840312156100f2576100f1610079565b5b6000610100848285016100c7565b91505092915050565b610d73806101186000396000f3fe608060405234801561001057600080fd5b50600436106100625760003560e01c80633ccfd60b14610067578063584b62a114610071578063833d826b146100a357806399b6db81146100c1578063a694fc3a146100df578063da40ef80146100fb575b600080fd5b61006f61012b565b005b61008b6004803603810190610086919061086d565b6103ee565b60405161009a939291906108bc565b60405180910390f35b6100ab610435565b6040516100b891906108f3565b60405180910390f35b6100c961043b565b6040516100d6919061091d565b60405180910390f35b6100f960048036038101906100f49190610938565b610461565b005b61011560048036038101906101109190610965565b610679565b60405161012291906108f3565b60405180910390f35b60008060003373ffffffffffffffffffffffffffffffffffffffff1673ffffffffffffffffffffffffffffffffffffffff168152602001908152602001600020905060008180549050116101b4576040517f08c379a00000000000000000000000000000000000000000000000000000000081526004016101ab906109ef565b60405180910390fd5b60008060005b8380549050811015610264578381815481106101d9576101d8610a0f565b5b906000526020600020906003020160000154836101f69190610a6d565b925061024a84828154811061020e5761020d610a0f565b5b90600052602060002090600302016040518060600160405290816000820154815260200160018201548152602001600282015481525050610747565b826102559190610a6d565b915080806001019150506101ba565b50600160009054906101000a900473ffffffffffffffffffffffffffffffffffffffff1673ffffffffffffffffffffffffffffffffffffffff1663a9059cbb3383856102b09190610a6d565b6040518363ffffffff1660e01b81526004016102cd929190610aa1565b6020604051808303816000875af11580156102ec573d6000803e3d6000fd5b505050506040513d601f19601f820116820180604052508101906103109190610b02565b61034f576040517f08c379a000000000000000000000000000000000000000000000000000000000815260040161034690610b7b565b60405180910390fd5b6000803373ffffffffffffffffffffffffffffffffffffffff1673ffffffffffffffffffffffffffffffffffffffff16815260200190815260200160002060006103999190610781565b3373ffffffffffffffffffffffffffffffffffffffff167f92ccf450a286a957af52509bc1c9939d1a6a481783e142e41e2499f0bb66ebc683836040516103e1929190610b9b565b60405180910390a2505050565b6000602052816000526040600020818154811061040a57600080fd5b9060005260206000209060030201600091509150508060000154908060010154908060020154905083565b6103e881565b600160009054906101000a900473ffffffffffffffffffffffffffffffffffffffff1681565b600081116104a4576040517f08c379a000000000000000000000000000000000000000000000000000000000815260040161049b90610c10565b60405180910390fd5b600160009054906101000a900473ffffffffffffffffffffffffffffffffffffffff1673ffffffffffffffffffffffffffffffffffffffff166323b872dd3330846040518463ffffffff1660e01b815260040161050393929190610c30565b6020604051808303816000875af1158015610522573d6000803e3d6000fd5b505050506040513d601f19601f820116820180604052508101906105469190610b02565b610585576040517f08c379a000000000000000000000000000000000000000000000000000000000815260040161057c90610b7b565b60405180910390fd5b6000803373ffffffffffffffffffffffffffffffffffffffff1673ffffffffffffffffffffffffffffffffffffffff16815260200190815260200160002060405180606001604052808381526020014381526020016000815250908060018154018082558091505060019003906000526020600020906003020160009091909190915060008201518160000155602082015181600101556040820151816002015550503373ffffffffffffffffffffffffffffffffffffffff167f9e71bc8eea02a63969f509818f2dafb9254532904319f9dbda79b67bd34a5f3d8260405161066e91906108f3565b60405180910390a250565b6000806000808473ffffffffffffffffffffffffffffffffffffffff1673ffffffffffffffffffffffffffffffffffffffff1681526020019081526020016000209050600080600090505b828054905081101561073c576107228382815481106106e6576106e5610a0f565b5b90600052602060002090600302016040518060600160405290816000820154815260200160018201548152602001600282015481525050610747565b8261072d9190610a6d565b915080806001019150506106c4565b508092505050919050565b60008082602001514361075a9190610c67565b90506103e883600001518261076f9190610c9b565b6107799190610d0c565b915050919050565b50805460008255600302906000526020600020908101906107a291906107a5565b50565b5b808211156107d05760008082016000905560018201600090556002820160009055506003016107a6565b5090565b600080fd5b600073ffffffffffffffffffffffffffffffffffffffff82169050919050565b6000610804826107d9565b9050919050565b610814816107f9565b811461081f57600080fd5b50565b6000813590506108318161080b565b92915050565b6000819050919050565b61084a81610837565b811461085557600080fd5b50565b60008135905061086781610841565b92915050565b60008060408385031215610884576108836107d4565b5b600061089285828601610822565b92505060206108a385828601610858565b9150509250929050565b6108b681610837565b82525050565b60006060820190506108d160008301866108ad565b6108de60208301856108ad565b6108eb60408301846108ad565b949350505050565b600060208201905061090860008301846108ad565b92915050565b610917816107f9565b82525050565b6000602082019050610932600083018461090e565b92915050565b60006020828403121561094e5761094d6107d4565b5b600061095c84828501610858565b91505092915050565b60006020828403121561097b5761097a6107d4565b5b600061098984828501610822565b91505092915050565b600082825260208201905092915050565b7f4e6f207374616b6520746f207769746864726177000000000000000000000000600082015250565b60006109d9601483610992565b91506109e4826109a3565b602082019050919050565b60006020820190508181036000830152610a08816109cc565b9050919050565b7f4e487b7100000000000000000000000000000000000000000000000000000000600052603260045260246000fd5b7f4e487b7100000000000000000000000000000000000000000000000000000000600052601160045260246000fd5b6000610a7882610837565b9150610a8383610837565b9250828201905080821115610a9b57610a9a610a3e565b5b92915050565b6000604082019050610ab6600083018561090e565b610ac360208301846108ad565b9392505050565b60008115159050919050565b610adf81610aca565b8114610aea57600080fd5b50565b600081519050610afc81610ad6565b92915050565b600060208284031215610b1857610b176107d4565b5b6000610b2684828501610aed565b91505092915050565b7f5472616e73666572206661696c65640000000000000000000000000000000000600082015250565b6000610b65600f83610992565b9150610b7082610b2f565b602082019050919050565b60006020820190508181036000830152610b9481610b58565b9050919050565b6000604082019050610bb060008301856108ad565b610bbd60208301846108ad565b9392505050565b7f416d6f756e74206d7573742062652067726561746572207468616e2030000000600082015250565b6000610bfa601d83610992565b9150610c0582610bc4565b602082019050919050565b60006020820190508181036000830152610c2981610bed565b9050919050565b6000606082019050610c45600083018661090e565b610c52602083018561090e565b610c5f60408301846108ad565b949350505050565b6000610c7282610837565b9150610c7d83610837565b9250828203905081811115610c9557610c94610a3e565b5b92915050565b6000610ca682610837565b9150610cb183610837565b9250828202610cbf81610837565b91508282048414831517610cd657610cd5610a3e565b5b5092915050565b7f4e487b7100000000000000000000000000000000000000000000000000000000600052601260045260246000fd5b6000610d1782610837565b9150610d2283610837565b925082610d3257610d31610cdd565b5b82820490509291505056fea26469706673582212204658b2f10f6fe15dceaeb1d45e11921e911326fd1f8e7b76032a750aff18231f64736f6c63430008180033",
  "linkReferences": {},
  "deployedLinkReferences": {}
}